:1000000012C02CC02BC02AC029C028C0C0C026C026
:1000100025C024C023C022C021C020C01FC01EC0D4
:100020001DC01CC01BC011241FBECFE5D4E0DEBF25
:10003000CDBF10E0A0E6B0E0E0EAFEE002C005902F
:100040000D92A43BB107D9F710E0A4EBB0E001C0DA
:100050001D92A93DB107E1F748D320C7D1CFE6E310
:10006000F0E0808190E096958795929582958F70CB
:1000700089279F70892721E030E082279327782FF6
:100080007170808190E0929582958F7089279F7022
:10009000892782279327682F61704091CD00509166
:1000A000CC00442371F4552361F4772321F070933D
:1000B000CD008FEF0895662321F06093CC0081E09E
:1000C000089520E030E0552311F421E030E0842F42
:1000D00090E082239323892B61F0772321F41092FF
:1000E000CD0081E00895662321F06093CC008FEF6E
:1000F0000895852F842361F0772321F41092CD0099
:100100008FEF0895662321F41092CC0081E00895CA
:10011000852F90E020E030E0442311F421E030E02E
:1001200082239323892B61F0772321F07093CD00F4
:1001300081E00895662321F41092CC008FEF08959A
:1001400080E0089586B38695869586958095817022
:10015000089587B9E6E2F0E0808180648083808141
:1001600084FFFDCFE6E2F0E080818061808384B18E
:1001700090E045B1342F20E0282B392B822F932F8C
:10018000089584ECE6DF089585ECE3DF08951F927F
:100190000F920FB60F9211242F933F938F939F933B
:1001A000EF93FF938091B5009091B60001969093E4
:1001B000B6008093B5002091B5003091B6008091D3
:1001C000D3009091D4002817390730F4E8E3F0E029
:1001D00080818260808305C0E8E3F0E080818D7FCC
:1001E00080838091B5009091B600885E934038F08E
:1001F00081E08093B4001092B6001092B500FF9198
:10020000EF919F918F913F912F910F900FBE0F9083
:100210001F9018952F923F924F925F926F927F920C
:100220008F929F92AF92BF92CF92DF92EF92FF9206
:100230000F931F93DF93CF9300D000D0CDB7DEB7DD
:100240002091AF003091B0004091B1005091B200C8
:100250008091CF009091D000A091D100B091D200B8
:1002600019012A01281A390A4A0A5B0A2092B700A2
:100270003092B8004092B9005092BA006090BB0032
:100280007090BC008090BD009090BE008091BF0037
:100290009091C000A091C100B091C200BC01CD01FD
:1002A000660D771D881D991D22E030E040E050E08A
:1002B000A3D562015101A21AB30AC40AD50AA092B9
:1002C000C300B092C400C092C500D092C600809115
:1002D000C7009091C800A091C900B091CA0089835D
:1002E0009A83AB83BC83C201B1012AEF30E040E0C6
:1002F00050E04FD57B018C0169817A818B819C8193
:1003000024E630E040E050E044D5E60EF71E081F3A
:10031000191FC601B50128E33FEF4FEF5FEF39D555
:10032000E60EF71E081F191F6092BF007092C000F2
:100330008092C1009092C2002092BB003092BC001B
:100340004092BD005092BE00C801B7012EE630E0D9
:1003500040E050E051D5822F932FA42FB52F9C0160
:10036000AD01253893E0390790E0490790E059073F
:100370002CF024E833E040E050E017C055232CF483
:1003800020E030E040E050E010C089819A81AB81EC
:10039000BC81820D931DA41DB51D8093C700909351
:1003A000C800A093C900B093CA003093D400209332
:1003B000D3000F900F900F900F90CF91DF911F916E
:1003C0000F91FF90EF90DF90CF90BF90AF909F90F4
:1003D0008F907F906F905F904F903F902F900895F7
:1003E0002AE93AE040E050E0D4D49B01AC01012E70
:1003F0001AE056954795379527951A95D1F7102D00
:10040000622F732F842F952F0895EADF22E132E0C7
:1004100040E050E0BED4605A774F8340904028EED1
:1004200033E040E050E0E8D4822F932FA42FB52F83
:10043000883E23E0920720E0A20720E0B20724F0E4
:1004400087EE93E0A0E0B0E09C01AD01BB2324F473
:1004500020E030E040E050E0622F732F842F952F92
:10046000089592DEA0E0B0E0BC01CD01B9DF9B01B0
:10047000AC01DC01CB018D5A9340A040B040C19744
:10048000A105B10520F481E08093CB000895255C9F
:1004900039404040504018F01092CB0008958FEF43
:1004A0008093CB00089587E084BB15BA83E886B9B2
:1004B00080EC87B982E087BB88E388BB87EE93E056
:1004C0009BBD8ABD1FBC8AE08EBDE9E5F0E080815E
:1004D0008061808378940895282F462F8091CB00E7
:1004E000813029F480E690E0622F54D30895882368
:1004F00029F48DE690E0622F4DD308958AE790E0CD
:10050000622F48D30895482F87E890E060E042D3F7
:100510000895EF92FF920F931F9380E090E0A9D48B
:10052000E82EFF2400E010E0102F0F2DFE2CEE240B
:1005300081E090E09ED490E0A0E0B0E0E82AF92AC3
:100540000A2B1B2B102F0F2DFE2CEE2482E090E0A7
:1005500090D490E0A0E0B0E0E82AF92A0A2B1B2B07
:10056000102F0F2DFE2CEE2483E090E082D490E03B
:10057000A0E0B0E0A8019701282B392B4A2B5B2B78
:10058000DA01C90184569040A040B0408F55914097
:10059000A040B04048F42093AF003093B0004093A7
:1005A000B1005093B2000CC084E690E0A0E0B0E04F
:1005B0008093AF009093B000A093B100B093B200CD
:1005C0001F910F91FF90EF900895EF92FF920F937C
:1005D0001F93E090AF00F090B0000091B100109137
:1005E000B200212F33274427552780E090E0622F67
:1005F00048D498014427552781E090E0622F41D4E8
:100600005527412F302F2F2D82E090E0622F39D4D3
:1006100083E090E06E2D35D41F910F91FF90EF9005
:100620000895DF92EF92FF920F931F937C01162F94
:10063000D42E6AE070E0CCD3805D612F9AD2C701DE
:100640006AE070E0C5D3062FF72E1150862F972F42
:100650006AE070E0BDD3805D612F4D2D8AD2802F7E
:100660009F2D6AE070E0B4D3CB016AE070E0B0D3B4
:100670001150805D612F4D2D7CD21F910F91FF9005
:10068000EF90DF9008950F931F93182F062F88E99E
:1006900090E0612F402F7ED2612F6A5F8091AF0082
:1006A0009091B000402FBDDF195F8FED612F402F7B
:1006B00060D21F910F9108950F931F93182F062F4B
:1006C0008CE990E0612F402F65D2612F6A5F8091A5
:1006D000CF009091D000402FA4DF195F8FED612FE4
:1006E000402F47D21F910F9108954F925F926F92C2
:1006F0007F928F929F92AF92BF92CF92DF92FF92A2
:100700000F931F93CF93DF931092D4001092D300D6
:10071000CADE37DDE8E3F0E080818D7F80831092D0
:10072000AF001092B0001092B1001092B20010927F
:10073000D5001092D60080E162E05BD28CE060E0F0
:10074000CAD180EA90E060E040E024D288EA90E0FC
:1007500060E041E01FD2DDDE28EE33E048EC50E0FF
:10076000CA010197F1F721503040D1F728EE33E06C
:1007700048EC50E0CA010197F1F721503040D1F721
:1007800028EE33E048EC50E0CA010197F1F7215020
:100790003040D1F728EE33E048EC50E0CA01019731
:1007A000F1F721503040D1F728EE33E048EC50E02B
:1007B000CA010197F1F721503040D1F728EE33E01C
:1007C00048EC50E0CA010197F1F721503040D1F7D1
:1007D00028EE33E048EC50E0CA010197F1F72150D0
:1007E0003040D1F728EE33E048EC50E0CA010197E1
:1007F000F1F721503040D1F780E085DE81E083DEE3
:1008000080E060E040DF2FE088E190E00FB6F894F0
:10081000A89581BD0FBE21BDFF2408E310E00F2E77
:10082000F0E2CF2EFEE4DF2EF02D0F2EF4E64F2E59
:10083000F0E05F2EF0E06F2EF0E07F2EF02D0F2E17
:10084000F2EC8F2EF1E09F2EF0E0AF2EF0E0BF2E05
:10085000F02D8091B400882309F452C01092B400A6
:10086000A895F894F80180818D7F8083C601019757
:10087000F1F787DCEC01F5DD8091D500882349F0A4
:100880008091D600882329F41092D50081E08093CE
:10089000D6009091CB00892F81508E3F20F0F80137
:1008A00080818D7F8083F3E0C93EDF0724F49923A4
:1008B00011F0F91641F081E026DE80E061E00CDE07
:1008C000F090CB0014C0BE01882777FD8095982F4B
:1008D0009CDD6093CF007093D0008093D100909303
:1008E000D2008091CB0081508E3F48F493DC809100
:1008F000CB0081508E3F18F488E060E0DDDE789414
:100900008091D500882351F48091D600882331F05E
:10091000F8941092D60059DEA8957894A0DB88232D
:1009200009F497CF813029F58093D5001092D60035
:100930008091AF009091B000A091B100B091B20051
:100940000196A11DB11D8093AF009093B000A093BC
:10095000B100B093B200835C9140A040B04084F1FC
:100960008092AF009092B000A092B100B092B2001D
:1009700027C08F3F29F581E08093D5001092D600E3
:100980008091AF009091B000A091B100B091B20001
:100990000197A109B1098093AF009093B000A09393
:1009A000B100B093B20084369105A105B10544F4BD
:1009B0004092AF005092B0006092B1007092B200CD
:1009C00080E060E060DE45CF882361F0813011F483
:1009D00080E40895823011F484E10895833011F4A5
:1009E00084E5089580E0089580E00895EF92FF92F5
:1009F0000F931F93CF93DF93EC01062FE42EF22E7B
:100A00006230B0F0842F622FEFDF8883882381F07B
:100A1000002371F010E01F5F812F8E0D6F2DE4DF3A
:100A2000FE01E10FF11D8083882311F0101798F368
:100A3000FE01E00FF11D319710828C2F9D2FDF9169
:100A4000CF911F910F91FF90EF9008958091D70063
:100A500008958091D80008958FEF81BB089511BA51
:100A6000089582BB089580B3089580FF08C0E5E330
:100A7000F0E08081816080830000000007C0E5E332
:100A8000F0E080818E7F808300000000E5E3F0E0ED
:100A900080818260808300000000E1DFE5E3F0E018
:100AA000808184608083000000000000000000005E
:100AB00000000000000000000000D5DFE5E3F0E0EA
:100AC00090819B7F908300000000089580E0CDDF3F
:100AD0008823E4F308950F931F93082F162F61FFC7
:100AE000F5DF10FF08C0E5E3F0E0808181608083DE
:100AF0000000000007C0E5E3F0E080818E7F808386
:100B000000000000E5E3F0E080818D7F808300003D
:100B10000000A2DF802FA5DF000000000000000021
:100B20000000000000000000E5E3F0E08081846048
:100B300080830000000000000000000000000000B2
:100B4000000000000000E5E3F0E080818B7F8083FF
:100B5000000000001F910F9108951F93182F862FFA
:100B60008F73806460E0B7DF812F61E0B4DF1F9195
:100B700008950F931F93082F162F842F25DF180F2A
:100B8000812F806860E0A7DF802F61E0A4DF1F91E4
:100B90000F910895FF920F931F93CF93DF93EC0172
:100BA000F62E042F8881882361F010E0612F6F0DED
:100BB000402FDFDF1F5FFE01E10FF11D80818823E1
:100BC000A9F7DF91CF911F910F91FF900895FF92A8
:100BD0000F931F93F82E062F662339F010E08F2D08
:100BE00061E079DF1F5F1017D0F31F910F91FF9025
:100BF00008950F931F938093D7006093D800E5E387
:100C0000F0E080818E7F808300000000E4E3F0E06C
:100C1000808181608083E5E3F0E080818D7F808347
:100C200000000000E4E3F0E0808182608083E5E37F
:100C3000F0E080818B7F808300000000E4E3F0E03F
:100C400080818460808320E931E048EC50E0CA0173
:100C50000197F1F721503040D1F788E362E03BDFA4
:100C600020E931E048EC50E0CA010197F1F721504A
:100C70003040D1F788E060E02EDF00E21EE4C801DA
:100C80000197F1F781E060E026DFC8010197F1F7F5
:100C900082E060E020DFC8010197F1F786E060E0C4
:100CA0001ADFC8010197F1F71F910F910895CF92B4
:100CB000DF92EF92FF920F931F93C62ED42EF22E47
:100CC000689F80011124E12E9801220F331F220F0B
:100CD000331F200F311F85E0189FC0011124032FFF
:100CE000081B8F2D71DE8D0D806860E0F4DE8FEFC4
:100CF000612F6DDF8091CE008F5F81708093CE0079
:100D00008823F1F488E760E0E6DE25E030E0201B90
:100D1000310981E090E002C0880F991F2A95E2F71F
:100D2000819568E054DF8F2D4FDE912F9D0D980F38
:100D3000892F806860E0CFDE8FE061E0CCDE1DC0EF
:100D400080E760E0C8DE25E030E0201B310981E06B
:100D500090E002C0880F991F2A95E2F7819568E01C
:100D600036DF8F2D31DE912F9D0D980F892F8068F2
:100D700060E0B1DE8EE061E0AEDE6E2D60956C0D60
:100D800080E225DF1F910F91FF90EF90DF90CF90D1
:100D90000895629FD001739FF001829FE00DF11DC5
:100DA000649FE00DF11D929FF00D839FF00D749FE5
:100DB000F00D659FF00D9927729FB00DE11DF91F91
:100DC000639FB00DE11DF91FBD01CF0111240895EE
:100DD000AA1BBB1B51E107C0AA1FBB1FA617B70761
:100DE00010F0A61BB70B881F991F5A95A9F780957D
:100DF0009095BC01CD01089597FB092E05260ED0D4
:100E000057FD04D014D00AD0001C38F450954095FA
:100E1000309521953F4F4F4F5F4F0895F6F79095CE
:100E20008095709561957F4F8F4F9F4F0895A1E2F8
:100E30001A2EAA1BBB1BFD010DC0AA1FBB1FEE1F54
:100E4000FF1FA217B307E407F50720F0A21BB30B9F
:100E5000E40BF50B661F771F881F991F1A9469F71B
:100E600060957095809590959B01AC01BD01CF0177
:100E70000895E199FECF9FBB8EBBE09A99278DB371
:100E80000895262FE199FECF9FBB8EBB2DBB0FB6D9
:100E9000F894E29AE19A0FBE01960895F894FFCF74
:100EA0004D6963726F546F6F6C202020004E6F206D
:100EB00049726F6E202020202000556E6B6E6F7778
:100EC0006E2049726F6E00202020202020202020DC
:100ED000202020202020200054643A0054693A0049
:100EE00057656C636F6D6500465720302E31006486
:040EF00000000000FE
:00000001FF
